{
  "contractName": "Votar",
  "abi": [
    {
      "constant": true,
      "inputs": [
        {
          "name": "candidato",
          "type": "bytes32"
        }
      ],
      "name": "votosTotalesPara",
      "outputs": [
        {
          "name": "",
          "type": "uint8"
        }
      ],
      "payable": false,
      "stateMutability": "view",
      "type": "function"
    },
    {
      "constant": true,
      "inputs": [
        {
          "name": "candidato",
          "type": "bytes32"
        }
      ],
      "name": "validaCandidato",
      "outputs": [
        {
          "name": "",
          "type": "bool"
        }
      ],
      "payable": false,
      "stateMutability": "view",
      "type": "function"
    },
    {
      "constant": true,
      "inputs": [
        {
          "name": "",
          "type": "uint256"
        }
      ],
      "name": "candidatosLista",
      "outputs": [
        {
          "name": "",
          "type": "bytes32"
        }
      ],
      "payable": false,
      "stateMutability": "view",
      "type": "function"
    },
    {
      "constant": false,
      "inputs": [
        {
          "name": "candidato",
          "type": "bytes32"
        }
      ],
      "name": "votoParaCandidato",
      "outputs": [],
      "payable": false,
      "stateMutability": "nonpayable",
      "type": "function"
    },
    {
      "constant": false,
      "inputs": [
        {
          "name": "candidatoNombres",
          "type": "bytes32[]"
        }
      ],
      "name": "Voting",
      "outputs": [],
      "payable": false,
      "stateMutability": "nonpayable",
      "type": "function"
    },
    {
      "constant": true,
      "inputs": [
        {
          "name": "",
          "type": "bytes32"
        }
      ],
      "name": "votosRecibidos",
      "outputs": [
        {
          "name": "",
          "type": "uint8"
        }
      ],
      "payable": false,
      "stateMutability": "view",
      "type": "function"
    }
  ],
  "bytecode": "0x6060604052341561000f57600080fd5b6104028061001e6000396000f300606060405260043610610078576000357c0100000000000000000000000000000000000000000000000000000000900463ffffffff1680631aece9e51461007d5780632c7107a6146100be57806347235108146100fd578063677456241461013c5780637e1cd79c14610163578063f38e2f0c146101bd575b600080fd5b341561008857600080fd5b6100a26004808035600019169060200190919050506101fe565b604051808260ff1660ff16815260200191505060405180910390f35b34156100c957600080fd5b6100e3600480803560001916906020019091905050610243565b604051808215151515815260200191505060405180910390f35b341561010857600080fd5b61011e60048080359060200190919050506102a3565b60405180826000191660001916815260200191505060405180910390f35b341561014757600080fd5b6101616004808035600019169060200190919050506102c7565b005b341561016e57600080fd5b6101bb600480803590602001908201803590602001908080602002602001604051908101604052809392919081815260200183836020028082843782019150505050505091905050610324565b005b34156101c857600080fd5b6101e260048080356000191690602001909190505061033e565b604051808260ff1660ff16815260200191505060405180910390f35b600061020982610243565b151561021457600080fd5b600080836000191660001916815260200190815260200160002060009054906101000a900460ff169050919050565b600080600090505b60018054905081101561029857826000191660018281548110151561026c57fe5b90600052602060002090015460001916141561028b576001915061029d565b808060010191505061024b565b600091505b50919050565b6001818154811015156102b257fe5b90600052602060002090016000915090505481565b6102d081610243565b15156102db57600080fd5b6001600080836000191660001916815260200190815260200160002060008282829054906101000a900460ff160192506101000a81548160ff021916908360ff16021790555050565b806001908051906020019061033a92919061035e565b5050565b60006020528060005260406000206000915054906101000a900460ff1681565b8280548282559060005260206000209081019282156103a0579160200282015b8281111561039f57825182906000191690559160200191906001019061037e565b5b5090506103ad91906103b1565b5090565b6103d391905b808211156103cf5760008160009055506001016103b7565b5090565b905600a165627a7a723058207c3b50767f726d6937fd55e50f051589e2815a449c83ac7062574089bd85495b0029",
  "source": "pragma solidity ^0.4.2;\n\ncontract Votar {\n  \n  mapping (bytes32 => uint8) public votosRecibidos;\n  \n  /* Solidity doesn't let you pass in an array of strings in the constructor (yet).\n  We will use an array of bytes32 instead to store the list of candidates\n  */\n  \n  bytes32[] public candidatosLista;\n\n  /* This is the constructor which will be called once when you\n  deploy the contract to the blockchain. When we deploy the contract,\n  we will pass an array of candidates who will be contesting in the election\n  */\n  function Voting(bytes32[] candidatoNombres) public {\n    candidatosLista = candidatoNombres;\n  }\n\n  // This function returns the total votes a candidate has received so far\n  function votosTotalesPara(bytes32 candidato) view public returns (uint8) {\n    require(validaCandidato(candidato));\n    return votosRecibidos[candidato];\n  }\n\n  // This function increments the vote count for the specified candidate. This\n  // is equivalent to casting a vote\n  function votoParaCandidato(bytes32 candidato) public {\n    require(validaCandidato(candidato));\n    votosRecibidos[candidato] += 1;\n  }\n\n  function validaCandidato(bytes32 candidato) view public returns (bool) {\n    for(uint i = 0; i < candidatosLista.length; i++) {\n      if (candidatosLista[i] == candidato) {\n        return true;\n      }\n    }\n    return false;\n  }\n}\n",
  "sourcePath": "/home/keanue/Data/Git/BLOCKCHAIN/VotoChain/contracts/Votar.sol",
  "compiler": {
    "name": "solc",
    "version": "0.4.18+commit.9cf6e910.Emscripten.clang"
  },
  "schemaVersion": "1.0.1",
  "updatedAt": "2017-11-15T13:50:10.874Z"
}